S01700004763634170706C69636174696F6E322E737265635A
S11300000C9434000C9451000C9451000C94510045
S11300100C9451000C9451000C9451000C94510018
S11300200C9451000C9451000C9451000C94510008
S11300300C9451000C9451000C9486000C945100C3
S11300400C9451000C9451000C9451000C945100E8
S11300500C9451000C9451000C9451000C945100D8
S11300600C9451000C94510011241FBECFEFD8E022
S1130070DEBFCDBF11E0A0E0B1E0EAE3F2E002C0F0
S113008005900D92A23AB107D9F721E0A2EAB1E0B6
S113009001C01D92A93CB207E1F70E945D000C94D7
S11300A01B010C94000080E091E00E94D5000895AB
S11300B08CE891E00E94D500089587E60E94A9008B
S11300C00E94B1000E94B7000E9453000E946C007D
S11300D078940E947500FDCF8EE487BD82E084BDD4
S11300E095E095BD80936E0008958091A5018823C5
S11300F021F00E9458001092A5018091A401882348
S113010021F00E94F1001092A40108951F920F9211
S11301100FB60F9211248F938091A3018F5F809368
S1130120A301813021F48093A4011092A301809152
S1130130A2018F5F8093A201843129F481E080932E
S1130140A5011092A2018F910F900FBE0F901F90E6
S113015018951092C10096E09093C2008093C40059
S11301600895E1ECF0E08081886080830895E1ECFB
S1130170F0E080818061808308958091C00085FFD4
S1130180FCCF08958093C60008959091C8019032E1
S113019058F4E091C701F0E0EA55FE4F8083809166
S11301A0C7018F5F8093C70108950F931F93CF9367
S11301B08C01C0E003C00E94C500CF5FF801EC0FC2
S11301C0F11D80818A30B9F7CF911F910F91089565
S11301D0CF93C82F0E94BD008C2F0E94C200CF91E4
S11301E008958091C00088236CF48091C601803208
S11301F048F48091C6018091C6008091C6018F5F4A
S11302008093C6019091C8018091C701981770F43A
S1130210E091C801F0E0EA55FE4F80810E94E800B9
S11302208091C8018F5F8093C80108951092C8011E
S10D02301092C6010895F894FFCF60
S113023A47656E657261646F722064652073656ECA
S113024A69616C6573206469676974616C6573209C
S113025A70726F6772616D61626C650A0D496E67CF
S113026A72657365206672656375656E636961207C
S113027A656E747265203130302079203130303027
S113028A30487A0A0D4F4E3A207061726120656EC9
S113029A63656E6465722C204F46462070617261F4
S11302AA206170616761722C20525354207061720C
S11302BA61207265696E6963696172006E0D486FC7
S11302CA6C612C206573746F2066756E63696F6E3A
S10502DA6100BD
S9030000FC
