S01700004763634170706C69636174696F6E322E737265635A
S11300000C9434000C9451000C9451000C94510045
S11300100C9451000C9451000C9451000C94510018
S11300200C9451000C9451000C9451000C94510008
S11300300C9451000C9451000C94D3000C94510076
S11300400C9451000C9451000C9451000C945100E8
S11300500C9451000C9451000C9451000C945100D8
S11300600C9451000C94510011241FBECFEFD8E022
S1130070DEBFCDBF11E0A0E0B1E0EAE1F3E002C0F1
S113008005900D92A23CB107D9F722E0A2ECB1E0B1
S113009001C01D92AE34B207E1F70E94A2000C9495
S11300A08B010C9400001092C30180E001C08F5FAB
S11300B08530E8F31092C401089581E08093C5016E
S11300C008958091C5018823A9F08091C20120E49C
S11300D0829FC001112480509F4F0E94260180916D
S11300E0C2018F5F8093C201833021F41092C20158
S11300F01092C5010895CF93DF931F92CDB7DEB759
S11301008091C50181111AC0CE0101960E9470012F
S11301108823A1F089810E9416018981813619F40E
S11301200E9453000BC08091C401853020F48F5F7E
S11301308093C40103C081E08093C3010F90DF91D9
S1130140CF91089587E60E94FA000E9402010E945E
S113015008010E945D000E94B10078940E94BA00D8
S1130160FDCF8DE487BD82E084BD95E095BD80938D
S11301706E0008958091C901882321F00E946100D6
S11301801092C9018091C801882321F00E94420184
S11301901092C8018091C701882321F00E947B003E
S11301A01092C70108951F920F920FB60F92112457
S11301B08F9381E08093C8018091C0018F5F809309
S11301C0C0018A3029F481E08093C7011092C001F4
S11301D08091C6018F5F8093C6018C3329F481E03E
S11301E08093C9011092C6018F910F900FBE0F909A
S11301F01F9018951092C10096E09093C2008093CE
S1130200C4000895E1ECF0E0808188608083089563
S1130210E1ECF0E080818061808308958091C000EA
S113022085FFFCCF08958093C600089590914D02F8
S1130230903458F4E0914C02F0E0E65FFD4F808387
S113024080914C028F5F80934C0208950F931F930B
S1130250CF938C01C0E003C00E941601CF5FF80168
S1130260EC0FF11D80818111F7CFCF911F910F9178
S11302700895CF93C82F0E940E018C2F0E94130162
S1130280CF9108958091C00088238CF480914A0214
S1130290803468F4E0914A02F0E08091C600E653AD
S11302A0FE4F808380914A028F5F80934A0290912F
S11302B04D0280914C02981770F4E0914D02F0E0E9
S11302C0E65FFD4F80810E94390180914D028F5F6E
S11302D080934D02089510924D0210924C0208959D
S11302E0DC0120914B0290914A02291770F4E091AD
S11302F04B02F0E0E653FE4F80818C9380914B02D9
S11303008F5F80934B0281E0089510924B0210920C
S10D03104A0280E00895F894FFCF3C
S113031A47656E657261646F722064652073656EE9
S113032A69616C6573206469676974616C657320BB
S113033A70726F6772616D61626C652E0D000000E8
S113034A000000000000000000000000000000009F
S113035A496E6772657365206672656375656E6357
S113036A696120656E7472652031303020792031DC
S113037A30303030487A0D000000000000000000E0
S113038A000000000000000000000000000000005F
S113039A4F4E3A207061726120656E63656E6465C2
S11303AA722E0D4F46463A20706172612061706167
S11303BA6761722E0D5253543A2070617261207231
S11303CA65696E69636961722E0D000000000000A0
S10503DA0A0013
S9030000FC
