S01700004763634170706C69636174696F6E322E737265635A
S11300000C9434000C9451000C9451000C94510045
S11300100C9451000C9451000C9451000C94510018
S11300200C9451000C9451000C9451000C94510008
S11300300C9451000C9451000C949A000C945100AF
S11300400C9451000C9451000C9451000C945100E8
S11300500C9451000C9451000C9451000C945100D8
S11300600C9451000C94510011241FBECFEFD8E022
S1130070DEBFCDBF11E0A0E0B1E0E2E5F2E002C0F6
S113008005900D92A03CB107D9F722E0A0ECB1E0B5
S113009001C01D92A830B207E1F70E9471000C94D0
S11300A027010C94000081E08093C10108958091A0
S11300B0C1018823A9F08091C00120E4829FC0017E
S11300C0112480509F4F0E94E1008091C0018F5FF6
S11300D08093C001833021F41092C0011092C101B9
S11300E0089587E60E94B5000E94BD000E94C300E7
S11300F00E9453000E94800078940E948900FDCFE2
S11301008DE487BD82E084BD95E095BD80936E004B
S113011008958091C401882321F00E945700109211
S1130120C4018091C301882321F00E94FD00109234
S1130130C30108951F920F920FB60F9211248F934B
S113014081E08093C3018091C2018F5F8093C201DB
S11301508C3329F481E08093C4011092C2018F9101
S11301600F900FBE0F901F9018951092C10096E04B
S11301709093C2008093C4000895E1ECF0E0808184
S1130180886080830895E1ECF0E080818061808361
S113019008958091C00085FFFCCF08958093C60028
S11301A0089590910702903458F4E0910602F0E02B
S11301B0EB53FE4F8083809106028F5F809306028B
S11301C008950F931F93CF938C01C0E003C00E9446
S11301D0D100CF5FF801EC0FF11D80818111F7CFC1
S11301E0CF911F910F910895CF93C82F0E94C900FA
S11301F08C2F0E94CE00CF9108958091C000882357
S11302006CF480910502803448F480910502809159
S1130210C600809105028F5F8093050290910702CA
S113022080910602981770F4E0910702F0E0EB5316
S1130230FE4F80810E94F400809107028F5F8093BB
S11302400702089510920702109206020895F89486
S1050250FFCFDA
S113025247656E657261646F722064652073656EB2
S113026269616C6573206469676974616C65732084
S113027270726F6772616D61626C652E0D000000B1
S11302820000000000000000000000000000000068
S1130292496E6772657365206672656375656E6320
S11302A2696120656E7472652031303020792031A5
S11302B230303030487A0D000000000000000000A9
S11302C20000000000000000000000000000000028
S11302D24F4E3A207061726120656E63656E64658B
S11302E2722E0D4F46463A20706172612061706130
S11302F26761722E0D5253543A20706172612072FA
S113030265696E69636961722E0D00000000000068
S9030000FC
