S01700004763634170706C69636174696F6E322E737265635A
S11300000C9434000C9451000C9451000C94510045
S11300100C9451000C9451000C9451000C94510018
S11300200C9451000C9451000C9451000C94510008
S11300300C9451000C9451000C9467010C945100E1
S11300400C9451000C9451000C9451000C945100E8
S11300500C9451000C9451000C9451000C945100D8
S11300600C9451000C94510011241FBECFEFD8E022
S1130070DEBFCDBF11E0A0E0B1E0E0E1F5E002C0F9
S113008005900D92AA3DB107D9F722E0AAEDB1E09F
S113009001C01D92AA36B207E1F70E9438010C9400
S11300A086020C9400008091C0018823A9F08091FD
S11300B0DA0120E4829FC001112480509F4F0E94E6
S11300C0BA018091DA018F5F8093DA01833021F4E1
S11300D01092DA011092C00108958091DB01811120
S11300E068C08091DD018F3499F49091DE019E34D3
S11300F079F49091DF0191110BC09091E00191117D
S113010007C09091E101911103C00E942D0155C0D7
S11301108F3499F49091DE01963479F49091DF0153
S1130120963459F49091E001911107C09091E10146
S1130130911103C00E94150140C08235E1F4809101
S1130140DE018335C1F48091DF018435A1F480910F
S1130150E001811110C08091E10181110CC00E9465
S1130160150184E690E09093C2018093C10181E07F
S11301708093C00122C08DED91E00E946002AC0129
S1130180092E000C660B770B44565109610971095D
S11301904D3A56426105710538F49093C20180933B
S11301A0C1010E941A0109C084EC91E00E94BA01C5
S11301B004C084EC91E00E94BA011092DB01EDEDE1
S11301C0F1E0108211821282138214821092DC01F7
S11301D00895CF93DF931F92CDB7DEB78091C0010E
S11301E081111FC0CE0101960E9404028823C9F028
S11301F089810E94AA0199819D3019F40E946D00A1
S113020010C08091DC01853048F4E82FF0E0E3521F
S1130210FE4F90838F5F8093DC0103C081E0809365
S1130220DB010F90DF91CF9108951092800010921E
S1130230810008952091C1013091C20140E050E055
S113024060E472E48FE090E00E941F0221503109C3
S11302503093890020938800089582E084B980E473
S1130260809380008AE0809381000E941A0108959F
S113027087E60E948E010E9496010E949C010E94C2
S1130280450178940E944E01FDCF8DE487BD82E044
S113029084BD95E095BD80936E0008958091E5013D
S11302A0882321F00E9453001092E5018091E4011B
S11302B0882321F00E94D6011092E4018091E30189
S11302C0882321F00E94E9001092E30108951F920F
S11302D00F920FB60F9211248F9381E08093E40163
S11302E08091C3018F5F8093C3018A3029F481E038
S11302F08093E3011092C3018091E2018F5F8093A8
S1130300E2018C3329F481E08093E5011092E2014B
S11303108F910F900FBE0F901F9018951092C100EF
S113032096E09093C2008093C4000895E1ECF0E05D
S11303308081886080830895E1ECF0E080818061B1
S1130340808308958091C00085FFFCCF0895809339
S1130350C600089590916902903458F4E0916802BF
S1130360F0E0EA5DFD4F8083809168028F5F8093A7
S1130370680208950F931F93CF938C01C0E003C0CC
S11303800E94AA01CF5FF801EC0FF11D8081811159
S1130390F7CFCF911F910F910895CF93C82F0E944B
S11303A0A2018C2F0E94A701CF9108958091C000D3
S11303B088238CF480916602803468F4E0916602AC
S11303C0F0E08091C600EA51FE4F8083809166027E
S11303D08F5F8093660290916902809168029817FA
S11303E070F4E0916902F0E0EA5DFD4F80810E94C3
S11303F0CD01809169028F5F809369020895109204
S11304006902109268020895DC01209167029091BC
S11304106602291770F4E0916702F0E0EA51FE4F9A
S113042080818C93809167028F5F8093670281E063
S11304300895109267021092660280E00895052ED6
S113044097FB1EF400940E94360257FD07D00E94C9
S11304503E0207FC03D04EF40C94360250954095AE
S1130460309521953F4F4F4F5F4F0895909580955C
S1130470709561957F4F8F4F9F4F0895A1E21A2E7B
S1130480AA1BBB1BFD010DC0AA1FBB1FEE1FFF1F34
S1130490A217B307E407F50720F0A21BB30BE40B84
S11304A0F50B661F771F881F991F1A9469F76095CB
S11304B07095809590959B01AC01BD01CF01089585
S11304C0FC0188279927E89421912032E9F3293007
S11304D010F02E30C8F32B3241F02D3239F46894E9
S11304E004C00E947E02820F911D219120532A3064
S11304F0C0F31EF4909581959F4F08957AE0979FDD
S1130500902D879F802D910D11240895F894FFCF8D
S113051047656E657261646F722064652073656EF1
S113052069616C6573206469676974616C657320C3
S113053070726F6772616D61626C652E0D000000F0
S113054000000000000000000000000000000000A7
S1130550496E6772657365206672656375656E635F
S1130560696120656E7472652031303020792031E4
S113057030303030487A0D000000000000000000E8
S11305800000000000000000000000000000000067
S11305904F4E3A207061726120656E63656E6465CA
S11305A0722E0D4F46463A2070617261206170616F
S11305B06761722E0D5253543A2070617261207239
S11305C065696E69636961722E0D000000000000A8
S11305D00164000A436F6D616E646F204E6F205694
S10D05E0616C69646F2E0D0D0000BC
S9030000FC
